:030000000212F9F0
:0C12F900787FE4F6D8FD75811C020D1111
:1008FB005A4A59204F4C45440041534349493A0009
:10090B00434F44453A00060AFE0AC600E000F000D9
:10091B00F80000FE7DBBC7EFEFEFEFEFEFEFC7BBCC
:10092B007DFE00000000080CFEFE0C082060FEFEA1
:10093B00602000007848FE82BABA82BABA82BABA8C
:10094B0082BABA82FE000000000000000000000026
:10095B00000000E0E1E101010101010101010101E0
:10096B000100000000000000C0C0C000000000E05B
:10097B00E00000C0C0C0C0C0C0C0C0C0C0C0C0C0CC
:10098B00C040000000000000F0F0F030303030309C
:10099B00303030FFFFFF3030303030303030F0F05F
:1009AB00F000000000000000FFFFFF00000000FF50
:1009BB00FF00000000030F3EF8F0C0E0F03C1F0FFB
:1009CB000300000000000000FFFFFFC0C0C0C0C05C
:1009DB00C0C0C0FFFFFFC0C0C0C0C0C0C0C0FFFFD1
:1009EB00FF000000000000008787878080808087E1
:1009FB00878080BCFEE6C683838381838387868E54
:100A0B008E8C1C000000000003030300000000009C
:100A1B00000000FFFFFF00000000000000000303C8
:100A2B0003000000000000000101010101013D7DF8
:100A3B00716101010101010101E1F9791901010163
:100A4B000101000000000000000080808080808099
:100A5B0080808087878780808080808080808000F6
:100A6B00000000000000030303030303030303035D
:100A7B00030303030303030303030303030303033B
:100A8B0003030303000000000000FFFFFFD9D9D9C7
:100A9B00D9D9D9D9D9D9D9D9D9D9D9D9FFFFFF0022
:100AAB00000000000000000018181818181818187B
:100ABB0018181818FFFFFF181818181818181818F6
:100ACB001818180000001818181818D8D8D8D8D823
:100ADB00D8D8D8DEDEDED8D8D8D8D8D8D8D81818F9
:100AEB00181818000000000000000000FFFFFF3383
:100AFB0033333333333333333333333333FFFF0056
:100B0B0000000000000000000000000F8FC8C8C8E4
:100B1B0008080808F8F808080808E8C8CF8F80000C
:100B2B00000000000000000000000000FFFFFF6657
:100B3B0066666666666666666666666666FFFF007E
:100B4B00000000000000000006060707030101007B
:100B5B00001C1C0C0F0F0000000000010103030719
:100B6B000F0000000000000E0E0E0E0E0F0F0F0EEA
:100B7B000E0E0E0E0E0E0E0E0E0E0E0E0E0F0F0E88
:100B8B000E0E0E0E000000FEFEFE06060606C6C684
:100B9B00C6C6C6C6C6C6C6C6C6C6C606060606FEB2
:100BAB00FEFE0000000000000000FEFEC6C6C6C62A
:100BBB00C6C6C6C6C6C6C6C6C6C6C6C6C6C6C6FE92
:100BCB00FE000000000000FFFFFF001818181818A7
:100BDB00F8F8F8181818F8F818181818180000FF73
:100BEB00FFFF0000000000000000FFFF0000C0C07E
:100BFB00C0C0C0FEFEFEC0C0C0C0C0FEFEFEC0C076
:100C0B00C0C0C000000000FFFFFF000040E0F07C10
:100C1B003F0F010000007FFFE0E0E0F0783000FFC5
:100C2B00FFFF00000000000080F8FF3F00181818BD
:100C3B00181818FFFF1F1818181818FFFFFF18189F
:100C4B00181818180000003F3F3F0C0C0C0C0C0C34
:100C5B000C0C0C0C0C0C0C0C0C0C0C0C0C0C0C3F96
:100C6B003F3F00000000000E0F07010000000030A6
:100C7B00381C0F07030000000000003F3F3F00003F
:100C8B000000000000000048485C48C8485C484829
:100C9B00000000F0949890F0909894F00000000001
:100CAB000000000000000000000000000000000039
:100CBB00000000C0201010101020C00000C0201039
:100CCB0010101020C0000024150E04FF040E152474
:100CDB0000000017141414FF141414170000000064
:100CEB0000000000000000000000000000000000F9
:100CFB000000001F2040404050205F80001F20401C
:060D0B00404050205F8013
:100D1100750820120EC1E4FF121287750C80750D43
:100D2100FF750E09750F117B40E4FDFF12111E7F47
:100D3100F47E0112126D121228750C10E4FBFD7F76
:100D41000812100A750C107B01E4FD7F1812100ABD
:100D5100750C107B02E4FD7F2812100A750C107BC4
:100D6100037D02E4FF12100A750C107B047D027FE3
:100D71001012100A750C107B057D027F2012100ADB
:100D8100750C107B067D027F3012100A7BFF7A08FA
:100D910079FB750E107D04E4FF1211867BFF7A0941
:100DA1007904750E107D06E4FF1211867BFF7A0926
:100DB100790B750E107D08E4FF121186751610ABC4
:100DC100087D067F30120DF40508E508D3947E40B6
:100DD10003750820E508FB7A00750D03750E107D7B
:100DE100087F281210957FF47E0112126D121228CD
:030DF100020D1CD4
:100003000000000000000000002F000000000700B7
:10001300070000147F147F1400242A7F2A12006231
:1000230064081323003649552250000005030000DD
:1000330000001C224100000041221C000014083E65
:1000430008140008083E0808000000A0600000082B
:10005300080808080000606000000020100804027F
:10006300003E5149453E0000427F4000004261513D
:100073004946002141454B31001814127F100027D7
:1000830045454539003C4A4949300001710905039A
:1000930000364949493600064949291E00003636CB
:1000A300000000005636000000081422410000142E
:1000B300141414140000412214080002015109060B
:1000C30000324959513E007C1211127C007F49498C
:1000D3004936003E41414122007F4141221C007FBD
:1000E30049494941007F09090901003E4149497ACB
:1000F300007F0808087F0000417F41000020404145
:100103003F01007F08142241007F40404040007FB0
:10011300020C027F007F0408107F003E4141413EF4
:10012300007F09090906003E4151215E007F09193C
:1001330029460046494949310001017F0101003F39
:100143004040403F001F2040201F003F4038403FB9
:10015300006314081463000708700807006151491D
:10016300454300007F41410000552A552A550000B0
:1001730041417F000004020102040040404040402E
:10018300000001020400002054545478007F4844C6
:10019300443800384444442000384444487F0038FD
:1001A3005454541800087E0901020018A4A4A47C26
:1001B300007F080404780000447D400000408084F0
:1001C3007D00007F102844000000417F4000007C38
:1001D30004180478007C0804047800384444443844
:1001E30000FC242424180018242418FC007C080490
:1001F300040800485454542000043F444020003C69
:100203004040207C001C2040201C003C4030403CEF
:10021300004428102844001CA0A0A07C004464547F
:100223004C441414141414140000000000000000C3
:100233000000000000000000000000F800000000C3
:10024300000000333000000000100C06100C060004
:10025300000000000000000040C07840C07840006B
:10026300043F04043F040400007088FC08300000CD
:10027300001820FF211E0000F008F000E018000025
:1002830000211C031E211E0000F0088870000000DE
:100293001E2123241927211010160E000000000030
:1002A3000000000000000000000000E0180402004D
:1002B300000000071820400000020418E0000000BE
:1002C3000040201807000000404080F080404000BC
:1002D3000202010F01020200000000F00000000012
:1002E3000101011F010101000000000000000000E6
:1002F30080B070000000000000000000000000005B
:1003030000010101010101010000000000000000E3
:10031300003030000000000000000000806018047E
:10032300006018060100000000E010080810E0005B
:10033300000F102020100F00001010F80000000024
:100343000020203F2020000000700808088870006B
:1003530000302824222130000030088888483000EB
:100363000018202020110E000000C02010F800000B
:1003730000070424243F240000F8088888080800A4
:100383000019212020110E0000E0108888180000B9
:10039300000F112020110E0000380808C83808008B
:1003A3000000003F0000000000708808088870000B
:1003B300001C222121221C0000E010080810E0008C
:1003C3000000312222110F00000000C0C000000015
:1003D300000000303000000000000080000000003A
:1003E3000000806000000000000080402010080032
:1003F30000010204081020004040404040404000FB
:1004030004040404040404000008102040800000D5
:100413000020100804020100007048080808F000DA
:100423000000003036010000C030C828E810E000AA
:100433000718272423140B000000C038E000000035
:10044300203C23020227382008F88888887000009F
:10045300203F202020110E00C03008080808380073
:10046300071820202010080008F808080810E000EA
:10047300203F202020100F0008F88888E80810008B
:10048300203F20202320180008F88888E80810005F
:10049300203F200003000000C03008080838000097
:1004A30007182020221E020008F808000008F80898
:1004B300203F210101213F20000808F8080800001F
:1004C3000020203F2020000000000808F808080052
:1004D300C08080807F00000008F888C028180800CA
:1004E300203F20012638200008F808000000000003
:1004F300203F20202020300008F8F800F8F80800FA
:10050300203F003F003F200008F830C00008F808F3
:10051300203F200007183F00E01008080810E00003
:100523000F10202020100F0008F808080808F0001A
:10053300203F210101010000E01008080810E0003D
:100543000F18242438504F0008F8888888887000D2
:10055300203F2000030C3020007088080808380072
:100563000038202121221C00180808F80808180068
:100573000000203F2000000008F808000008F808E9
:10058300001F202020201F000878880000C838089A
:10059300000007380E010000F80800F80008F80012
:1005A300033C0700073C03000818688080681808AC
:1005B30020302C03032C30200838C800C83808002A
:1005C3000000203F2000000010080808C838080079
:1005D3002038262120201800000000FE020202001D
:1005E3000000007F40404000000C30C000000000CD
:1005F300000000010638C00000020202FE000000F5
:10060300004040407F00000000000402020204009A
:1006130000000000000000000000000000000000D7
:1006230080808080808080800002020400000000BF
:1006330000000000000000000000808080800000B7
:100643000019242222223F2008F8008080000000A5
:10065300003F112020110E00000000808080000068
:10066300000E112020201100000000808088F80077
:10067300000E112020103F200000808080800000A9
:10068300001F222222221300008080F0888888180D
:100693000020203F20200000000080808080800018
:1006A300006B94949493600008F8008080800000AD
:1006B300203F210000203F20008098980000000088
:1006C3000020203F202000000000008098980000B8
:1006D30000C08080807F000008F8000080808000D8
:1006E300203F24022D302000000808F800000000FD
:1006F3000020203F202000008080808080808000B8
:10070300203F20003F20003F808000808080000049
:10071300203F210000203F200000808080800000D7
:10072300001F202020201F00808000808000000008
:1007330080FFA12020110E00000000808080800037
:10074300000E112020A0FF80808080008080800028
:1007530020203F2120000100000080808080800055
:100763000033242424241900008080E080800000CA
:100773000000001F20200000808000000080800017
:10078300001F202020103F20808080000080808078
:1007930000010E3008060100808000800080808008
:1007A3000F300C030C300F0000808000808080002D
:1007B3000020312E0E312000808080000080808058
:1007C30080818E7018060100008080808080800008
:1007D3000021302C2221300000000000807C020226
:1007E30000000000003F404000000000FF00000048
:1007F30000000000FF0000000002027C80000000F7
:100803000040403F00000000000601010202040412
:1008130000000000000000000000F010101010FFA6
:1008230010101010F000000000000F04040404FF77
:10083300040404040F0000004040405F5555557503
:100843005555555F404040000040200F09498979C4
:100853000909090F2040000000FE02424ACA4A4A21
:10086300CA4A4A4202FE000000FF40504C43404047
:100873004F50505C40FF00000000F888888888FFD4
:1008830088888888F800000000001F080808087F8F
:10089300888888889F80F00080828282828282E2B8
:1008A300A2928A8682808000000000000040807F40
:1008B3000000000000000000101010FF10900888D6
:1008C3008888FF88888808000444827F01808040EC
:1008D300432C1028468180000010101010D030FFE8
:1008E30030D0121C1010000010080402010000FF99
:0808F3000000010204081000DE
:10126D00EF4E60157D087C07ED1DAA0470011C4A28
:09127D0070F6EF1F70EA1E80E715
:011286002245
:101287008F09E5097006FD7FA61211DCE509B40197
:0912970007E4FD7FA71211DC221F
:08130F007F01AE071FEE70FA2A
:0113170022B3
:0F12CD00D291D29012130FC29112130FC290221E
:0A130500C291D29012130FD2912270
:0F12DC00D29112130FD29012130FC29002130F60
:02120500AD0733
:10120700E4FCC290ED30E704D2918002C291121340
:101217000FD29012130FC290ED25E0FD0CBC08E22F
:0112270022A4
:0D11CF001211DCE4FDFF1211DCE4FD7F10C5
:1011DC00AB05AA071212CD7F781212051212DCEBA6
:1011EC0060047F408002E4FF1212051212DCAF0291
:0911FC001212051212DC021305A7
:10124B00A907ED24B0FFE4FD1211DCE954F0C454FE
:10125B000F4410FFE4FD1211DCE9540FFFE4FD0213
:02126B0011DC94
:1012B800E4FD7F8D1211DCE4FD7F141211DCE4FDE6
:0512C8007FAF0211DC04
:0E12EB00E4FD7F8D1211D5E4FD7FAE0211DC13
:10122800E4F9E924B0FFE4FD1211CFE4F5097D01EA
:10123800E4FF1211DC0509E509C3944040F009B93F
:0212480010E0B4
:01124A002281
:040DF4008F138D14B8
:100DF800E4F517E516C313FDF518E4F519F51AE53A
:100E080016B40808751B00751C068029E51613130F
:100E180013541FFF7E00E5165407600590000180FB
:100E280003900000E5822FFFE5833EFE7C00120F51
:100E3800A38E1B8F1CEB24E0F517AD14AF13121211
:100E48004BE4F519F51AC3E51A951CE519951B50DD
:100E580067E518FD7C00AE19AF1A120FB5ED4C709E
:100E68000FE51664086009AD140514AF1312124B90
:100E7800E516B4081075F006E517A42403F582E515
:100E8800F034008013E516B4102E75F010E517A4A1
:100E9800242BF582E5F03402F583E582251AF582E4
:100EA800E5833519F583E493FF7D011211DC051AFA
:080EB800E51A70920519808E05
:010EC000220F
:0412A0008F13A905FA
:1012A4007F017E00AD0119ED6009AD137C00120FC2
:0312B400A380F123
:0112B7002214
:081095008F098D0A8A0B8B0CF8
:10109D00E4F511F512E50EB40803751102E4F50F30
:1010AD00E50FC3950D5069C3E50D950F14FD7F0A2E
:1010BD001212A0AC0BAD0CCFCDCFCECCCE120FB546
:1010CD007C007D0A120FB58D10E5127025E50D140B
:1010DD00FFE50FC39F501BE5107014E50EC31325DC
:1010ED0011850FF0A42509FF850E167B208018753C
:1010FD001201E50EC3132511850FF0A42509FFE597
:10110D00102430FB850E16AD0A120DF4050F8090DC
:01111D0022AF
:0A1186008F098D0A8B0B8A0C890D6E
:10119000E4F50FAB0BAA0CA90D850F827583001225
:1011A0000F76602AAF0F050F8F82758300120F76BE
:1011B000FB850E16AD0AAF09120DF4E50EB4080456
:0E11C00074068004E50EC3132509F50980C5E9
:0111CE0022FE
:06100A008F098D0A8B0B1B
:10101000E50C131313541FFF7E00E50C54077C00EE
:1010200060047D0180027D00ED2FFFEC3EFEAD0CE3
:101030007C00120FA38E0F8F10E4F50DF50EC3E5A3
:101040000E9510E50D950F504BE50CFD7C00AE0D97
:10105000AF0E120FB5ED4C7009AD0A050AAF0912BB
:10106000124BE50CB4102DE50BC43354E0241BF5F2
:1010700082E43408F583E582250EF582E583350D9B
:10108000F583E493FF7D011211DC050EE50E70AED1
:04109000050D80AA20
:011094002239
:06111E008F098D0A8B0B06
:10112400E4F510F511E50C131313541FFFE50C54EB
:101134000760047E0180027E00EF2EF50CE4F512B8
:10114400E512C3950C503AE512250AFDAF091212B7
:101154004BE4F513E513C3950B5022AB0DAA0EA96E
:101164000F0511E511AE107002051014F5828E837F
:10117400120F76FF7D011211DC051380D705128052
:01118400BFAB
:011185002247
:100EC100C2927F0A7E0012126DD292E4FD7FAE12B1
:100ED10011CFE4FD7FB01211DCE4FD7F811211DC42
:100EE100E4FD7F5F1211DCE4FD7F201211DCE4FDE3
:100EF1007F091211DCE4FD7FA11211DCE4FD7FC842
:100F01001211DCE4FD7FA41211DCE4FD7FA61211B5
:100F1100DCE4FD7FA81211DCE4FD7F3F1211DCE46B
:100F2100FD7FD31211DCE4FDFF1211DCE4FD7FD55E
:100F31001211DCE4FD7F801211DCE4FD7FD9121176
:100F4100DCE4FD7F221211DCE4FD7FDA1211D5E42D
:100F5100FD7FDB1211DCE4FD7F301211DCE4FD7F4B
:100F61008D1211DCE4FD7F721211DC121228E4FDF6
:050F71007FAF0211DC5E
:100F7600BB010CE58229F582E5833AF583E0225030
:100F860006E92582F8E622BBFE06E92582F8E2227A
:0D0F9600E58229F582E5833AF583E4932294
:100FA300EF8DF0A4A8F0CF8CF0A428CE8DF0A42E62
:020FB300FE221C
:100FB500BC000BBE0029EF8DF084FFADF022E4CC20
:100FC500F875F008EF2FFFEE33FEEC33FCEE9DECE9
:100FD500984005FCEE9DFE0FD5F0E9E4CEFD22ED2F
:100FE500F8F5F0EE8420D21CFEADF075F008EF2F79
:100FF500FFED33FD4007985006D5F0F222C398FD6A
:051005000FD5F0EA2206
:00000001FF
